:1000000040C063C062C061C060C05FC05EC05DC010
:100010005CC05BC05AC059C058C057C056C055C01C
:100020002DC153C052C051C050C04FC04EC04DC072
:100030004CC04BC038010000000700020100000363
:100040000406000000000000000001020408102067
:10005000408001020408102001020408102004045A
:100060000404040404040202020202020303030360
:1000700003030000232629000025282B0000242745
:100080002A0011241FBECFEFD2E0DEBFCDBF11E0AA
:10009000A0E0B1E0E8E8F5E002C005900D92A030E4
:1000A000B107D9F711E0A0E0B1E001C01D92A23183
:1000B000B107E1F710E0C6E3D0E003C02297FE01EC
:1000C0005FD2C433D107D1F7C2C09ACF0895089543
:1000D0001F93CF93DF93EC01162F1E821F821D8288
:1000E0002EC060E08B81DDD1812F99270D8002C069
:1000F000959587950A94E2F780FF02C061E001C000
:1001000060E08981CED18C81992714D1888180D1FA
:100110008E83882359F080E890E00D8002C0959589
:1001200087950A94E2F72F81282B2F8361E08B813A
:10013000B8D18C819927FED08D818F5F8D838D8181
:10014000883078F28F819927DF91CF911F910895A0
:10015000BF92CF92DF92EF92FF920F931F936C01A9
:10016000162FB42EF22E60E0812F34D161E0812F62
:1001700098D1F601108361E08B2D2CD1F601B1826C
:1001800061E08F2D27D1F601F28261E08F2D89D1B8
:1001900061E0802F1FD1F601038361E0802F81D1C0
:1001A000F601E4821F910F91FF90EF90DF90CF90C6
:1001B000BF9008950F931F938C0160E0FC01828132
:1001C00070D161E0C80184DF62E4C80181DF6FEFB4
:1001D000C8017EDF6FEFC8017BDF8095F801808763
:1001E0006FEFC80175DF8095F801818761E082813A
:1001F00058D1F80181859927982F882720853327A2
:10020000822B932B938782871F910F910895EF92F2
:100210000F938AE0E82E05E024E043E062E082E00C
:1002200091E096DF61E08DE0D5D00F91EF900895D9
:1002300082E091E0BFDF909301018093000196FF7F
:1002400002C061E001C060E08DE02BD10895CFEFE6
:10025000D2E0DEBFCDBF7CD0DADFEADFFECF6F5F5A
:100260007F4F29F4019719F482E091E030DF08957F
:100270006FEF7FEF81E090E0F2DF08951F920F9221
:100280000FB60F9211248F939F93AF93BF938091DA
:100290000E0190910F01A0911001B09111010196F2
:1002A000A11DB11D80930E0190930F01A093100129
:1002B000B0931101BF91AF919F918F910F900FBE9D
:1002C0000F901F90189560910E0170910F01809111
:1002D00010019091110127E0660F771F881F991F69
:1002E0002A95D1F727E030E040E050E025D1CA015F
:1002F000B9010895AF92BF92CF92DF92EF92FF9231
:100300000F931F935B016C01DEDF7B018C01DBDF50
:100310006E197F09800B910B6A157B058C059D0575
:10032000B0F31F910F91FF90EF90DF90CF90BF90AF
:10033000AF9008958130910551F0029741F0880FF8
:10034000991F01972FB7F8940197F1F72FBF0895E0
:10035000789410920E0110920F01109210011092D9
:10036000110184B5826084BD84B5816084BD85B58A
:10037000826085BD85B5816085BDEEE6F0E0808157
:1003800081608083E1E8F0E0808182608083808109
:1003900081608083E0E8F0E0808181608083E1EB30
:1003A000F0E0808184608083E0EBF0E08081816018
:1003B0008083EAE7F0E080818460808380818260CE
:1003C00080838081816080838081806880831092B7
:1003D000C1000895282F3327C901865B9F4FFC0178
:1003E0009491225A3F4FF9018491882381F0E82F9C
:1003F000FF27E458FF4FE491FF27662329F480810B
:1004000090958923808308958081892B8083089526
:10041000482F5527CA018A5C9F4FFC012491CA01CD
:10042000865B9F4FFC019491425A5F4FFA013491D1
:100430003323A1F1222331F1233021F48091800074
:100440008F7705C0243031F4809180008F7D8093B8
:10045000800018C0213019F484B58F7704C0223091
:1004600021F484B58F7D84BD0DC0263021F48091A8
:10047000B0008F7705C0273029F48091B0008F7DC0
:100480008093B000E32FFF27EE58FF4FE491FF2742
:100490008081892319F081E090E0089580E090E068
:1004A0000895482F5527CA018A5C9F4FFC0124916B
:1004B000CA01865B9F4FFC019491425A5F4FFA013B
:1004C00034913323C1F1222331F1233021F480917F
:1004D00080008F7705C0243031F4809180008F7DBB
:1004E0008093800018C0213019F484B58F7704C040
:1004F000223021F484B58F7D84BD0DC0263021F4D7
:100500008091B0008F7705C0273029F48091B0002A
:100510008F7D8093B000E32FFF27E958FF4FE491D0
:10052000FF27662329F4808190958923808308958D
:100530008081892B80830895A1E21A2EAA1BBB1B00
:10054000FD010DC0AA1FBB1FEE1FFF1FA217B3079F
:10055000E407F50720F0A21BB30BE40BF50B661FB5
:10056000771F881F991F1A9469F760957095809579
:1005700090959B01AC01BD01CF010895EE0FFF1FC7
:080580000590F491E02D0994AF
:00000001FF
