:100000000C9436000C94CB030C94E8030C945E0023
:100010000C945E000C945E000C945E000C945E00E8
:100020000C945E000C945E000C945E000C945E00D8
:100030000C945E000C945E000C945E000C945E00C8
:100040000C9405040C945E000C9420050C945E0046
:100050000C945E000C945E000C945E000C945E00A8
:100060000C945E000C945E00BD027B0311241FBE45
:10007000CFEFD4E0DEBFCDBF11E0A0E0B1E0E2E918
:10008000FBE002C005900D92A638B107D9F712E047
:10009000A6E8B1E001C01D92A732B107E1F710E078
:1000A000CCE6D0E004C02297FE010E94C305C8360A
:1000B000D107C9F70E9474030C94C7050C94000083
:1000C000CF93DF93BC018230910510F462E070E0C1
:1000D000A0912502B0912602ED01E0E0F0E040E0C1
:1000E00050E021C0888199818617970769F48A8139
:1000F0009B81309719F09383828304C090932602EA
:1001000080932502FE0134C06817790738F4411541
:10011000510519F08417950708F4AC01FE018A8196
:100120009B819C01E9012097E9F641155105A9F150
:10013000CA01861B970B049708F4BA01E0E0F0E0CF
:100140002AC08D919C91119784179507F9F4641733
:10015000750781F412968D919C911397309719F041
:100160009383828304C09093260280932502FD012D
:1001700032964CC0CA01861B970BFD01E80FF91F90
:100180006193719302978D939C9340C0FD0182818E
:1001900093819C01D9011097A1F68091230290913F
:1001A0002402892B41F480917C0190917D019093F0
:1001B00024028093230240917E0150917F014115DA
:1001C000510541F44DB75EB780917A0190917B0162
:1001D000481B590B2091230230912402CA01821B33
:1001E000930B8617970780F0AB014E5F5F4F841724
:1001F000950750F0420F531F50932402409323025F
:10020000F9016193719302C0E0E0F0E0CF01DF916A
:10021000CF910895CF93DF93009709F450C0EC017C
:1002200022971B821A82A0912502B0912602109774
:1002300009F140E050E0AC17BD0708F1BB83AA8389
:10024000FE0121913191E20FF31FAE17BF0779F440
:100250008D919C911197280F391F2E5F3F4F398345
:10026000288312968D919C9113979B838A834115C5
:10027000510571F4D0932602C093250220C0129636
:100280008D919C911397AD01009711F0DC01D3CFB4
:10029000FA01D383C28321913191E20FF31FCE176C
:1002A000DF0769F488819981280F391F2E5F3F4F3E
:1002B000FA01318320838A819B8193838283DF913A
:1002C000CF910895FB01DC018D91019080190110FF
:1002D000D9F3990B0895FB01DC014150504048F0DF
:1002E00001900D920020C9F701C01D92415050406D
:1002F000E0F70895FC01808191810E9462019C01D8
:1003000080E0232B09F481E008950F931F93CF938E
:10031000DF93EC018B01CB0101960E946000888382
:1003200099831D830C831B821A8220E030E007C072
:10033000E881F981E20FF31F10822F5F3F4F8C811C
:100340009D8128173907A0F3DF91CF911F910F915D
:1003500008950F931F938C01DC0112964D915C91CF
:1003600013974F5F5F4F8D919C910E946B01D80155
:10037000ED91FC91119712968D919C911397E80F36
:10038000F91F10821F910F9108950F931F93CF9320
:10039000DF93EC018B016115710511F400E011E0B0
:1003A000F80101900020E9F73197E01BF10BFB8386
:1003B000EA83FD83EC83CF0101960E94600088836D
:1003C000998320E030E007C0E881F981E20FF31F54
:1003D00010822F5F3F4F8C819D8128173907A0F332
:1003E000B801CE010E94A901DF91CF911F910F9119
:1003F00008950F931F938C0161E071E00E94C50185
:10040000C8011F910F910895FF920F931F93CF93EF
:10041000DF93EC01F62E2A813B818C819D81281788
:100420003907A1F408811981C9010196880F991F24
:100430009D838C8301960E94600088839983B80114
:10044000CE010E94A901C8010E940A018A819B81F4
:10045000E881F981E80FF91FF08201969B838A8376
:10046000E881F981E80FF91F1082CE01DF91CF9169
:100470001F910F91FF9008950E94040208950F9319
:100480001F93CF93DF93EC018B016115710511F47C
:1004900000E011E0D8010D900020E9F71197A01BB2
:1004A000B10BBB83AA838C819D818A179B0768F45B
:1004B000BD83AC83888199810E940A018A819B81D6
:1004C00001960E9460008883998320E030E007C095
:1004D000E881F981E20FF31F10822F5F3F4F8C817B
:1004E0009D8128173907A0F3B801CE010E94A90108
:1004F000CE01DF91CF911F910F9108950F931F931C
:10050000CF93DF93EC018B018617970781F1FB01F5
:10051000228133818C819D818217930770F48881B9
:1005200099810E940A01F801828193819D838C83C5
:1005300001960E94600088839983F80182819381EB
:100540009B838A8320E030E007C0E881F981E20FD5
:10055000F31F10822F5F3F4F8C819D812817390731
:10056000A0F3F80160817181CE010E94A901CE0142
:10057000DF91CF911F910F9108956EE170E086E8B1
:1005800091E00E94850108950F931F93DF93CF930D
:1005900000D000D000D0CDB7DEB78DE891E00E944A
:1005A0008603682F8A3011F08D3061F460918601E6
:1005B000709187018DE891E00E94C00381E08093F3
:1005C0008C0119C080918801909189014E972CF47B
:1005D00086E891E00E943C020EC0772767FD709587
:1005E0008E010F5F1F4FC8010E948501B80186E888
:1005F00091E00E947E0226960FB6F894DEBF0FBEF1
:10060000CDBFCF91DF911F910F91089565E071E00B
:100610008DE891E00E94910310928C0108951F9340
:100620008DE891E00E948903882311F00E94C402A2
:1006300010918C01113039F560E271E086E891E0AB
:100640000E947A01882389F08DE891E00E94A90335
:1006500067E271E08DE891E00E94C0038DE891E0CF
:100660000E94A90310938C0106C062E571E08DE839
:1006700091E00E94C00360E671E086E891E00E948C
:100680003F020E9406031F9108950F931F93DF936B
:10069000CF9300D000D000D0CDB7DEB70DE811E089
:1006A00040E855E260E070E0C8010E948C0361E61A
:1006B00071E0C8010E94910366E871E0CE010196E5
:1006C0000E94F90169817A81C8010E94C0030E94D9
:1006D000060326960FB6F894DEBF0FBECDBFCF91AE
:1006E000DF911F910F9108950E9475040E944503A8
:1006F0000E940F03FDCF84E891E090938E018093D8
:100700008D010895862F0E94E80408950E94010536
:1007100008950E94F0040895CB01BA010E94AF042D
:1007200008950F931F93CF93DF938C01EB0109C0C2
:100730002196D801ED91FC910190F081E02DC80146
:10074000099568816623A1F7DF91CF911F910F91E1
:1007500008950F931F938C01DC01ED91FC910190A2
:10076000F081E02D6DE00995D801ED91FC910190AB
:10077000F081E02D6AE0C80109951F910F9108955D
:100780000F931F938C010E949103C8010E94A9033B
:100790001F910F9108951F920F920FB60F9211247F
:1007A0008F939F93EF93FF9380918F01909190018E
:1007B000892B29F0E0918F01F09190010995FF912B
:1007C000EF919F918F910F900FBE0F901F901895F2
:1007D0001F920F920FB60F9211248F939F93EF9356
:1007E000FF938091910190919201892B29F0E091E2
:1007F0009101F09192010995FF91EF919F918F9155
:100800000F900FBE0F901F9018951F920F920FB66A
:100810000F9211242F938F939F93AF93BF93809147
:10082000930190919401A0919501B0919601019648
:10083000A11DB11D8093930190939401A093950104
:10084000B09396018091970190919801A0919901A0
:10085000B0919A018050904CAF4FBF4F8093970159
:1008600090939801A0939901B0939A0127C0809129
:10087000970190919801A0919901B0919A018058A7
:100880009E43A040B0408093970190939801A0931D
:100890009901B0939A0180919B0190919C01A09144
:1008A0009D01B0919E010196A11DB11D80939B01F8
:1008B00090939C01A0939D01B0939E01809197011C
:1008C00090919801A0919901B0919A0181589E430D
:1008D000A040B04060F6BF91AF919F918F912F9152
:1008E0000F900FBE0F901F901895789484B582607A
:1008F00084BD84B5816084BD85B5826085BD85B5C4
:10090000816085BDEEE6F0E0808181608083E1E872
:10091000F0E0808182608083808181608083E0E874
:10092000F0E0808181608083E1EBF0E08081846091
:100930008083E0EBF0E0808181608083EAE7F0E093
:1009400080818460808380818260808380818160F7
:1009500080838081806880831092C1000895EF9227
:10096000FF920F931F937B018C0122E030E040E067
:1009700050E00E949205205C3D4B404F5F4FCA0102
:10098000B901A80197010E949205C901DA010197F6
:10099000A109B109292F3A2F4B2F552747FD5A9509
:1009A0000196A11DB11D2093C50081508093C40004
:1009B000E1ECF0E0808180618083808188608083C9
:1009C0008081806880831F910F91FF90EF90089540
:1009D000982F8091C00085FFFCCF9093C6000895AA
:1009E00080919F019091A00180589F4F2091A1017B
:1009F0003091A201821B930B60E870E00E945D05BC
:100A000008954091A1015091A20180919F01909180
:100A1000A0018417950719F42FEF3FEF0FC0FA01DB
:100A2000ED55FE4F2081CA01019660E870E00E94FA
:100A30005D059093A2018093A10130E0C901089562
:100A40001F920F920FB60F9211242F933F934F9343
:100A50005F936F937F938F939F93AF93BF93EF9326
:100A6000FF934091C600E0919F01F091A001CF015A
:100A7000019660E870E00E945D059C018091A101F3
:100A80009091A2012817390739F0ED55FE4F4083A8
:100A90003093A00120939F01FF91EF91BF91AF91FF
:100AA0009F918F917F916F915F914F913F912F9186
:100AB0000F900FBE0F901F90189597FB092E0726D9
:100AC0000AD077FD04D049D006D000201AF47095E2
:100AD00061957F4F0895F6F7909581959F4F089502
:100AE000A1E21A2EAA1BBB1BFD010DC0AA1FBB1F32
:100AF000EE1FFF1FA217B307E407F50720F0A21BA4
:100B0000B30BE40BF50B661F771F881F991F1A9410
:100B100069F760957095809590959B01AC01BD013A
:100B2000CF01089597FB092E05260ED057FD04D05E
:100B3000D7DF0AD0001C38F45095409530952195A8
:100B40003F4F4F4F5F4F0895F6F790958095709502
:100B500061957F4F8F4F9F4F0895AA1BBB1B51E19B
:100B600007C0AA1FBB1FA617B70710F0A61BB70B1D
:100B7000881F991F5A95A9F780959095BC01CD01C2
:100B80000895EE0FFF1F0590F491E02D0994F8945D
:020B9000FFCF95
:100B920000302E3400576861742773207468652012
:100BA200636F6F6C65737420616E696D616C3F0079
:100BB2006D6F6E6B6579005468617427732072697A
:100BC2006768742C20616E6420646F6E27742079CC
:100BD2006F7520736179206F7468657277697365C8
:100BE2002E0057726F6E672E204C6F7365722E0047
:100BF20000537472696E67204C6962726172792067
:100C020076657273696F6E3A200020002702000039
:060C120000000000820357
:00000001FF
