:100000000C9436000C945D040C947A040C945E00FD
:100010000C945E000C945E000C945E000C945E00E8
:100020000C945E000C945E000C945E000C945E00D8
:100030000C945E000C945E000C945E000C945E00C8
:100040000C9497040C945E000C94B2050C945E0022
:100050000C945E000C945E000C945E000C945E00A8
:100060000C945E000C945E007B022E0311241FBED4
:10007000CFEFD4E0DEBFCDBF11E0A0E0B1E0E6EB12
:10008000FCE002C005900D92AC33B107D9F711E046
:10009000ACE3B1E001C01D92AC3DB107E1F710E067
:1000A000CCE6D0E004C02297FE010E945506C83677
:1000B000D107C9F70E9427030C9459060C9400003D
:1000C000CF93DF93BC018230910510F462E070E0C1
:1000D000A091DA01B091DB01ED01E0E0F0E040E059
:1000E00050E021C0888199818617970769F48A8139
:1000F0009B81309719F09383828304C09093DB0136
:100100008093DA01FE0134C06817790738F441158D
:10011000510519F08417950708F4AC01FE018A8196
:100120009B819C01E9012097E9F641155105A9F150
:10013000CA01861B970B049708F4BA01E0E0F0E0CF
:100140002AC08D919C91119784179507F9F4641733
:10015000750781F412968D919C911397309719F041
:100160009383828304C09093DB018093DA01FD01C5
:1001700032964CC0CA01861B970BFD01E80FF91F90
:100180006193719302978D939C9340C0FD0182818E
:1001900093819C01D9011097A1F68091D80190918B
:1001A000D901892B41F480913201909133019093D0
:1001B000D9018093D8014091340150913501411506
:1001C000510541F44DB75EB78091300190913101F6
:1001D000481B590B2091D8013091D901CA01821BCB
:1001E000930B8617970780F0AB014E5F5F4F841724
:1001F000950750F0420F531F5093D9014093D801F7
:10020000F9016193719302C0E0E0F0E0CF01DF916A
:10021000CF910895CF93DF93009709F450C0EC017C
:1002200022971B821A82A091DA01B091DB0110970C
:1002300009F140E050E0AC17BD0708F1BB83AA8389
:10024000FE0121913191E20FF31FAE17BF0779F440
:100250008D919C911197280F391F2E5F3F4F398345
:10026000288312968D919C9113979B838A834115C5
:10027000510571F4D093DB01C093DA0120C01296CE
:100280008D919C911397AD01009711F0DC01D3CFB4
:10029000FA01D383C28321913191E20FF31FCE176C
:1002A000DF0769F488819981280F391F2E5F3F4F3E
:1002B000FA01318320838A819B8193838283DF913A
:1002C000CF910895FB01DC014150504048F001906E
:1002D0000D920020C9F701C01D9241505040E0F737
:1002E0000895FC0177FD0CC082819381681779071E
:1002F00038F40190F081E02DE60FF71F808108951A
:1003000080E008950F931F93CF93DF93EC018B014F
:10031000CB0101960E946000888399831D830C8322
:100320001B821A8220E030E007C0E881F981E20FE9
:10033000F31F10822F5F3F4F8C819D812817390753
:10034000A0F3DF91CF911F910F9108950F931F9309
:100350008C01DC0112964D915C9113974F5F5F4FBA
:100360008D919C910E946201D801ED91FC911197B1
:1003700012968D919C911397E80FF91F10821F918F
:100380000F9108950F931F93CF93DF93EC018B018F
:100390006115710511F400E011E0F80101900020F1
:1003A000E9F73197E01BF10BFB83EA83FD83EC83D4
:1003B000CF0101960E9460008883998320E030E09D
:1003C00007C0E881F981E20FF31F10822F5F3F4FD2
:1003D0008C819D8128173907A0F3B801CE010E94B6
:1003E000A601DF91CF911F910F9108950F931F9355
:1003F0008C0161E071E00E94C201C8011F910F9160
:100400000895FF920F931F93CF93DF93EC01F62E85
:100410002A813B818C819D8128173907A1F40881AD
:100420001981C9010196880F991F9D838C830196BC
:100430000E94600088839983B801CE010E94A601C2
:10044000C8010E940A018A819B81E881F981E80F35
:10045000F91FF08201969B838A83E881F981E80F76
:10046000F91F1082CE01DF91CF911F910F91FF9064
:1004700008950E94010208950F931F93CF93DF9375
:10048000EC018B018617970781F1FB0122813381F3
:100490008C819D818217930770F4888199810E94D5
:1004A0000A01F801828193819D838C8301960E94C9
:1004B000600088839983F801828193819B838A837A
:1004C00020E030E007C0E881F981E20FF31F1082DD
:1004D0002F5F3F4F8C819D8128173907A0F3F801CA
:1004E00060817181CE010E94A601CE01DF91CF9182
:1004F0001F910F9108956EE170E08CE391E00E94EE
:10050000820108950F931F93DF93CF9300D000D003
:1005100000D0CDB7DEB782E491E00E943903682FA6
:1005200080913E0190913F014E972CF48CE391E035
:100530000E9439020EC0772767FD70958E010F5F0C
:100540001F4FC8010E948201B8018CE391E00E9414
:100550003C0226960FB6F894DEBF0FBECDBFCF91FA
:10056000DF911F910F910895EF92FF920F931F93C8
:1005700082E491E00E943C03882351F00E948202B1
:1005800060913C0170913D0182E491E00E9473030F
:10059000EE24FF24870122C0B7018CE391E00E9482
:1005A00071018A35B1F465E071E082E491E00E9466
:1005B00044032AE030E0B801A70182E491E00E9400
:1005C000520460913C0170913D0182E491E00E94EF
:1005D00073030894E11CF11C011D111D80913E0163
:1005E00090913F01E816F906BCF21F910F91FF9020
:1005F000EF9008950F931F93DF93CF9300D000D017
:1006000000D0CDB7DEB702E411E040E855E260E08B
:1006100070E0C8010E943F0367E171E0C8010E94D9
:1006200044036CE371E0CE0101960E94F6016981FA
:100630007A81C8010E94730326960FB6F894DEBF34
:100640000FBECDBFCF91DF911F910F9108950E94F2
:1006500007050E94FA020E94B402FDCF8AE391E0EE
:1006600090934301809342010895862F0E947A055A
:1006700008950E94930508950E9482050895CB0174
:10068000BA010E94410508950F931F93CF93DF9302
:100690008C01EB0109C02196D801ED91FC910190EC
:1006A000F081E02DC801099568816623A1F7DF91EB
:1006B000CF911F910F9108950F931F938C01DC012F
:1006C000ED91FC910190F081E02D6DE00995D8014C
:1006D000ED91FC910190F081E02D6AE0C80109954F
:1006E0001F910F9108950F931F938C010E94440353
:1006F000C8010E945C031F910F9108952F923F92B1
:100700004F925F926F927F928F929F92AF92BF9221
:10071000CF92DF92EF92FF920F931F93DF93CF93CD
:10072000CDB7DEB7A0970FB6F894DEBF0FBECDBF32
:100730001C016A017B01411551056105710549F4F0
:10074000DC01ED91FC910190F081E02D60E30995D1
:1007500054C0882499245401422E552466247724B9
:1007600001E010E00C0F1D1F080D191DC701B60197
:10077000A30192010E940206F80160830894811C83
:10078000911CA11CB11CC701B601A30192010E94DA
:100790000206C901DA016C017D01C114D104E10432
:1007A000F104F1F681E0E82EF12CEC0EFD1EE80CD0
:1007B000F91C3E010894611C711CD501C40101970C
:1007C000A109B1096C01C818D90814C0F601EE0DD1
:1007D000FF1D60816A3010F4605D01C0695CD10169
:1007E000ED91FC910190F081E02DC10109950894F3
:1007F000E108F1086E147F0449F7A0960FB6F8944B
:10080000DEBF0FBECDBFCF91DF911F910F91FF9043
:10081000EF90DF90CF90BF90AF909F908F907F90A0
:100820006F905F904F903F902F900895EF92FF92BE
:100830000F931F93CF93DF93EC017A018B0177FF26
:100840000FC0E881F9810190F081E02D6DE20995FA
:1008500010950095F094E094E11CF11C011D111D10
:100860002AE0B801A701CE010E947E03DF91CF915B
:100870001F910F91FF90EF900895DC012115310534
:1008800041F4ED91FC910190F081E02D642F0995E8
:1008900008952A30310519F40E94160408950E9423
:1008A0007E0308950F931F938C010E943D04C8019D
:1008B0000E945C031F910F9108951F920F920FB633
:1008C0000F9211248F939F93EF93FF938091440194
:1008D00090914501892B29F0E0914401F091450167
:1008E0000995FF91EF919F918F910F900FBE0F90FF
:1008F0001F9018951F920F920FB60F9211248F938D
:100900009F93EF93FF938091460190914701892B2C
:1009100029F0E0914601F09147010995FF91EF918F
:100920009F918F910F900FBE0F901F9018951F925F
:100930000F920FB60F9211242F938F939F93AF9323
:10094000BF938091480190914901A0914A01B091D3
:100950004B010196A11DB11D80934801909349015F
:10096000A0934A01B0934B0180914C0190914D01AD
:10097000A0914E01B0914F018050904CAF4FBF4FAE
:1009800080934C0190934D01A0934E01B0934F0181
:1009900027C080914C0190914D01A0914E01B091E2
:1009A0004F0180589E43A040B04080934C019093EB
:1009B0004D01A0934E01B0934F0180915001909151
:1009C0005101A0915201B09153010196A11DB11D99
:1009D0008093500190935101A0935201B093530121
:1009E00080914C0190914D01A0914E01B0914F0129
:1009F00081589E43A040B04060F6BF91AF919F9157
:100A00008F912F910F900FBE0F901F901895789493
:100A100084B5826084BD84B5816084BD85B5826003
:100A200085BD85B5816085BDEEE6F0E080818160A1
:100A30008083E1E8F0E08081826080838081816052
:100A40008083E0E8F0E0808181608083E1EBF0E08A
:100A5000808184608083E0EBF0E08081816080832E
:100A6000EAE7F0E080818460808380818260808317
:100A70008081816080838081806880831092C10042
:100A80000895EF92FF920F931F937B018C0122E058
:100A900030E040E050E00E942406205C3D4B404F97
:100AA0005F4FCA01B901A80197010E942406C9013C
:100AB000DA010197A109B109292F3A2F4B2F5527A8
:100AC00047FD5A950196A11DB11D2093C500815087
:100AD0008093C400E1ECF0E08081806180838081BC
:100AE000886080838081806880831F910F91FF9050
:100AF000EF900895982F8091C00085FFFCCF9093D0
:100B0000C6000895809154019091550180589F4FDF
:100B10002091560130915701821B930B60E870E0E1
:100B20000E94EF0508954091560150915701809120
:100B30005401909155018417950719F42FEF3FEF59
:100B40000FC0FA01E85AFE4F2081CA01019660E801
:100B500070E00E94EF05909357018093560130E0BA
:100B6000C90108951F920F920FB60F9211242F936F
:100B70003F934F935F936F937F938F939F93AF9325
:100B8000BF93EF93FF934091C600E0915401F09121
:100B90005501CF01019660E870E00E94EF059C01CD
:100BA00080915601909157012817390739F0E85A7A
:100BB000FE4F40833093550120935401FF91EF91F4
:100BC000BF91AF919F918F917F916F915F914F9165
:100BD0003F912F910F900FBE0F901F90189597FB8C
:100BE000092E07260AD077FD04D049D006D0002070
:100BF0001AF4709561957F4F0895F6F79095819559
:100C00009F4F0895A1E21A2EAA1BBB1BFD010DC028
:100C1000AA1FBB1FEE1FFF1FA217B307E407F507AC
:100C200020F0A21BB30BE40BF50B661F771F881F88
:100C3000991F1A9469F760957095809590959B011E
:100C4000AC01BD01CF01089597FB092E05260ED0FA
:100C500057FD04D0D7DF0AD0001C38F450954095DA
:100C6000309521953F4F4F4F5F4F0895F6F7909580
:100C70008095709561957F4F8F4F9F4F0895AA1B68
:100C8000BB1B51E107C0AA1FBB1FA617B70710F077
:100C9000A61BB70B881F991F5A95A9F780959095A9
:100CA000BC01CD010895EE0FFF1F0590F491E02DDA
:060CB0000994F894FFCF47
:100CB60000302E34005A20697320617420706F73DF
:100CC6006974696F6E2000537472696E67204C698F
:100CD60062726172792076657273696F6E3A20006E
:0C0CE6002000DC010000000000003503CD
:00000001FF
