:100000000C9436000C94B8020C94D5020C945E004B
:100010000C945E000C945E000C945E000C945E00E8
:100020000C945E000C945E000C945E000C945E00D8
:100030000C945E000C945E000C945E000C945E00C8
:100040000C94F2020C945E000C94FB030C945E0082
:100050000C945E000C945E000C945E000C945E00A8
:100060000C945E000C945E00FD016E0211241FBE14
:10007000CFEFD4E0DEBFCDBF11E0A0E0B1E0E8E417
:10008000F9E002C005900D92AC32B107D9F711E04A
:10009000ACE2B1E001C01D92AC3CB107E1F710E069
:1000A000CCE6D0E004C02297FE010E949E04C83630
:1000B000D107C9F70E9467020C94A2040C940000B7
:1000C000CF93DF93BC018230910510F462E070E0C1
:1000D000A091CA01B091CB01ED01E0E0F0E040E079
:1000E00050E021C0888199818617970769F48A8139
:1000F0009B81309719F09383828304C09093CB0146
:100100008093CA01FE0134C06817790738F441159D
:10011000510519F08417950708F4AC01FE018A8196
:100120009B819C01E9012097E9F641155105A9F150
:10013000CA01861B970B049708F4BA01E0E0F0E0CF
:100140002AC08D919C91119784179507F9F4641733
:10015000750781F412968D919C911397309719F041
:100160009383828304C09093CB018093CA01FD01E5
:1001700032964CC0CA01861B970BFD01E80FF91F90
:100180006193719302978D939C9340C0FD0182818E
:1001900093819C01D9011097A1F68091C80190919B
:1001A000C901892B41F48091200190912101909304
:1001B000C9018093C801409122015091230141154A
:1001C000510541F44DB75EB780911E0190911F011A
:1001D000481B590B2091C8013091C901CA01821BEB
:1001E000930B8617970780F0AB014E5F5F4F841724
:1001F000950750F0420F531F5093C9014093C80117
:10020000F9016193719302C0E0E0F0E0CF01DF916A
:10021000CF910895CF93DF93009709F450C0EC017C
:1002200022971B821A82A091CA01B091CB0110972C
:1002300009F140E050E0AC17BD0708F1BB83AA8389
:10024000FE0121913191E20FF31FAE17BF0779F440
:100250008D919C911197280F391F2E5F3F4F398345
:10026000288312968D919C9113979B838A834115C5
:10027000510571F4D093CB01C093CA0120C01296EE
:100280008D919C911397AD01009711F0DC01D3CFB4
:10029000FA01D383C28321913191E20FF31FCE176C
:1002A000DF0769F488819981280F391F2E5F3F4F3E
:1002B000FA01318320838A819B8193838283DF913A
:1002C000CF910895FB01DC014150504048F001906E
:1002D0000D920020C9F701C01D9241505040E0F737
:1002E0000895FC01828193816817790730F40190A9
:1002F000F081E02DE60FF71F408308950F931F93C1
:10030000CF93DF93EC018B01CB0101960E9460003B
:10031000888399831D830C831B821A8220E030E03E
:1003200007C0E881F981E20FF31F10822F5F3F4F72
:100330008C819D8128173907A0F3DF91CF911F9100
:100340000F9108950F931F938C01DC0112964D912C
:100350005C9113974F5F5F4F8D919C910E9462015A
:10036000D801ED91FC91119712968D919C91139764
:10037000E80FF91F10821F910F9108950F931F939B
:10038000CF93DF93EC018B016115710511F400E04F
:1003900011E0F80101900020E9F73197E01BF10B23
:1003A000FB83EA83FD83EC83CF0101960E9460000A
:1003B0008883998320E030E007C0E881F981E20F6B
:1003C000F31F10822F5F3F4F8C819D8128173907C3
:1003D000A0F3B801CE010E94A201DF91CF911F913D
:1003E0000F9108950F931F938C0161E071E00E94BB
:1003F000BE01C8011F910F91089563E070E08CE287
:1004000091E00E947E0108950F931F9380E00E9467
:100410009C0364E070E00E943804462F0CE211E077
:1004200060E070E0C8010E94710181E00E949C03BD
:1004300064E070E00E943804462F61E070E0C8017B
:100440000E94710182E00E949C0364E070E00E94BF
:100450003804462F62E070E0C8010E94710160918B
:100460002C0170912D0182E391E00E94AD021F9159
:100470000F9108950F931F93DF93CF9300D000D077
:1004800000D0CDB7DEB702E311E040E855E260E00E
:1004900070E0C8010E94790265E071E0C8010E9425
:1004A0007E026CE271E0CE0101960E94F201698148
:1004B0007A81C8010E94AD0226960FB6F894DEBF7D
:1004C0000FBECDBFCF91DF911F910F9108950E9474
:1004D00062030E943A020E940402FDCF89E291E089
:1004E00090933301809332010895862F0E94F30385
:1004F0000895CB01BA010E94BA0308950F931F9388
:10050000CF93DF938C01EB0109C02196D801ED91C7
:10051000FC910190F081E02DC80109956881662366
:10052000A1F7DF91CF911F910F9108950F931F9322
:100530008C01DC01ED91FC910190F081E02D6DE0EA
:100540000995D801ED91FC910190F081E02D6AE0D0
:10055000C80109951F910F9108950F931F938C0166
:100560000E947E02C8010E9496021F910F91089579
:100570001F920F920FB60F9211248F939F93EF93B8
:10058000FF938091340190913501892B29F0E091FE
:100590003401F09135010995FF91EF919F918F9171
:1005A0000F900FBE0F901F9018951F920F920FB6CD
:1005B0000F9211248F939F93EF93FF9380913601B5
:1005C00090913701892B29F0E0913601F0913701A4
:1005D0000995FF91EF919F918F910F900FBE0F9012
:1005E0001F9018951F920F920FB60F9211242F9300
:1005F0008F939F93AF93BF9380913801909139016E
:10060000A0913A01B0913B010196A11DB11D8093CB
:10061000380190933901A0933A01B0933B01809146
:100620003C0190913D01A0913E01B0913F0180506D
:10063000904CAF4FBF4F80933C0190933D01A093EE
:100640003E01B0933F0127C080913C0190913D0154
:10065000A0913E01B0913F0180589E43A040B04020
:1006600080933C0190933D01A0933E01B0933F01E4
:100670008091400190914101A0914201B0914301CC
:100680000196A11DB11D8093400190934101A0935B
:100690004201B093430180913C0190913D01A091B2
:1006A0003E01B0913F0181589E43A040B04060F6AA
:1006B000BF91AF919F918F912F910F900FBE0F908F
:1006C0001F901895789484B5826084BD84B581604C
:1006D00084BD85B5826085BD85B5816085BDEEE64A
:1006E000F0E0808181608083E1E8F0E080818260D9
:1006F0008083808181608083E0E8F0E08081816098
:100700008083E1EBF0E0808184608083E0EBF0E0C7
:10071000808181608083EAE7F0E08081846080836B
:100720008081826080838081816080838081806815
:1007300080831092C10008958F709091240192954A
:10074000990F990F907C982B90937C0080917A0060
:10075000806480937A0080917A0086FDFCCF20919E
:10076000780040917900942F80E030E0282B392BDD
:10077000C9010895EF92FF920F931F937B018C01A3
:1007800022E030E040E050E00E946D04205C3D4BF0
:10079000404F5F4FCA01B901A80197010E946D0443
:1007A000C901DA010197A109B109292F3A2F4B2F6D
:1007B000552747FD5A950196A11DB11D2093C500EF
:1007C00081508093C400E1ECF0E0808180618083FF
:1007D0008081886080838081806880831F910F91F1
:1007E000FF90EF900895982F8091C00085FFFCCF77
:1007F0009093C60008951F920F920FB60F92112486
:100800002F933F934F935F936F937F938F939F9318
:10081000AF93BF93EF93FF934091C600E0914401E3
:10082000F0914501CF01019660E870E00E94380424
:100830009C0180914601909147012817390739F0B2
:10084000E85BFE4F40833093450120934401FF91C4
:10085000EF91BF91AF919F918F917F916F915F9138
:100860004F913F912F910F900FBE0F901F901895B1
:1008700097FB092E07260AD077FD04D049D006D071
:1008800000201AF4709561957F4F0895F6F79095C2
:1008900081959F4F0895A1E21A2EAA1BBB1BFD0153
:1008A0000DC0AA1FBB1FEE1FFF1FA217B307E4074F
:1008B000F50720F0A21BB30BE40BF50B661F771FA7
:1008C000881F991F1A9469F7609570958095909587
:1008D0009B01AC01BD01CF01089597FB092E0526B0
:1008E0000ED057FD04D0D7DF0AD0001C38F4509545
:1008F0004095309521953F4F4F4F5F4F0895F6F744
:1009000090958095709561957F4F8F4F9F4F08957B
:10091000AA1BBB1B51E107C0AA1FBB1FA617B70725
:1009200010F0A61BB70B881F991F5A95A9F7809541
:100930009095BC01CD010895EE0FFF1F0590F49135
:08094000E02D0994F894FFCFAB
:1009480000302E3400537472696E67204C696272ED
:100958006172792076657273696F6E3A20002000A3
:0C096800CC01000001000000007502003E
:00000001FF
